{
  "contractName": "Ownable",
  "abi": [
    {
      "inputs": [],
      "payable": false,
      "stateMutability": "nonpayable",
      "type": "constructor"
    },
    {
      "anonymous": false,
      "inputs": [
        {
          "indexed": true,
          "name": "oldOwner",
          "type": "address"
        },
        {
          "indexed": true,
          "name": "newOwner",
          "type": "address"
        }
      ],
      "name": "TransferOwnership",
      "type": "event"
    },
    {
      "constant": true,
      "inputs": [],
      "name": "owner",
      "outputs": [
        {
          "name": "",
          "type": "address"
        }
      ],
      "payable": false,
      "stateMutability": "view",
      "type": "function"
    },
    {
      "constant": true,
      "inputs": [],
      "name": "isOwner",
      "outputs": [
        {
          "name": "",
          "type": "bool"
        }
      ],
      "payable": false,
      "stateMutability": "view",
      "type": "function"
    },
    {
      "constant": false,
      "inputs": [],
      "name": "renounceOwnership",
      "outputs": [],
      "payable": false,
      "stateMutability": "nonpayable",
      "type": "function"
    },
    {
      "constant": false,
      "inputs": [
        {
          "name": "newOwner",
          "type": "address"
        }
      ],
      "name": "transferOwnership",
      "outputs": [],
      "payable": false,
      "stateMutability": "nonpayable",
      "type": "function"
    }
  ],
  "bytecode": "0x608060405234801561001057600080fd5b50336000806101000a81548173ffffffffffffffffffffffffffffffffffffffff021916908373ffffffffffffffffffffffffffffffffffffffff1602179055506000809054906101000a900473ffffffffffffffffffffffffffffffffffffffff1673ffffffffffffffffffffffffffffffffffffffff16600073ffffffffffffffffffffffffffffffffffffffff167f5c486528ec3e3f0ea91181cff8116f02bfa350e03b8b6f12e00765adbb5af85c60405160405180910390a36103de806100dc6000396000f300608060405260043610610062576000357c0100000000000000000000000000000000000000000000000000000000900463ffffffff168063715018a6146100675780638da5cb5b1461007e5780638f32d59b146100d5578063f2fde38b14610104575b600080fd5b34801561007357600080fd5b5061007c610147565b005b34801561008a57600080fd5b50610093610219565b604051808273ffffffffffffffffffffffffffffffffffffffff1673ffffffffffffffffffffffffffffffffffffffff16815260200191505060405180910390f35b3480156100e157600080fd5b506100ea610242565b604051808215151515815260200191505060405180910390f35b34801561011057600080fd5b50610145600480360381019080803573ffffffffffffffffffffffffffffffffffffffff169060200190929190505050610299565b005b61014f610242565b151561015a57600080fd5b600073ffffffffffffffffffffffffffffffffffffffff166000809054906101000a900473ffffffffffffffffffffffffffffffffffffffff1673ffffffffffffffffffffffffffffffffffffffff167f5c486528ec3e3f0ea91181cff8116f02bfa350e03b8b6f12e00765adbb5af85c60405160405180910390a360008060006101000a81548173ffffffffffffffffffffffffffffffffffffffff021916908373ffffffffffffffffffffffffffffffffffffffff160217905550565b60008060009054906101000a900473ffffffffffffffffffffffffffffffffffffffff16905090565b60008060009054906101000a900473ffffffffffffffffffffffffffffffffffffffff1673ffffffffffffffffffffffffffffffffffffffff163373ffffffffffffffffffffffffffffffffffffffff1614905090565b6102a1610242565b15156102ac57600080fd5b6102b5816102b8565b50565b600073ffffffffffffffffffffffffffffffffffffffff168173ffffffffffffffffffffffffffffffffffffffff16141515156102f457600080fd5b8073ffffffffffffffffffffffffffffffffffffffff166000809054906101000a900473ffffffffffffffffffffffffffffffffffffffff1673ffffffffffffffffffffffffffffffffffffffff167f5c486528ec3e3f0ea91181cff8116f02bfa350e03b8b6f12e00765adbb5af85c60405160405180910390a3806000806101000a81548173ffffffffffffffffffffffffffffffffffffffff021916908373ffffffffffffffffffffffffffffffffffffffff160217905550505600a165627a7a72305820f006d265d9f0767fb19a2e03ad2400ec7f5d66774403857db26452c13ff1beab0029",
  "source": "pragma solidity ^0.4.24;\n\n/// Provides basic authorization control\ncontract Ownable {\n    address private origOwner;\n\n    // Define an Event\n    event TransferOwnership(address indexed oldOwner, address indexed newOwner);\n\n    /// Assign the contract to an owner\n    constructor () public {\n        origOwner = msg.sender;\n        emit TransferOwnership(address(0), origOwner);\n    }\n\n    /// Look up the address of the owner\n    function owner() public view returns (address) {\n        return origOwner;\n    }\n\n    /// Define a function modifier 'onlyOwner'\n    modifier onlyOwner() {\n        require(isOwner());\n        _;\n    }\n\n    /// Check if the calling address is the owner of the contract\n    function isOwner() public view returns (bool) {\n        return msg.sender == origOwner;\n    }\n\n    /// Define a function to renounce ownerhip\n    function renounceOwnership() public onlyOwner {\n        emit TransferOwnership(origOwner, address(0));\n        origOwner = address(0);\n    }\n\n    /// Define a public function to transfer ownership\n    function transferOwnership(address newOwner) public onlyOwner {\n        _transferOwnership(newOwner);\n    }\n\n    /// Define an internal function to transfer ownership\n    function _transferOwnership(address newOwner) internal {\n        require(newOwner != address(0));\n        emit TransferOwnership(origOwner, newOwner);\n        origOwner = newOwner;\n    }\n}\n",
  "sourcePath": "/Users/guto/Projects/blockchain/project-supply-chain/project/contracts/coffeecore/Ownable.sol",
  "compiler": {
    "name": "solc",
    "version": "0.4.24+commit.e67f0147.Emscripten.clang"
  },
  "schemaVersion": "2.0.1",
  "updatedAt": "2021-04-04T12:28:02.946Z"
}